:03000000020ADA17
:0C0ADA00787FE4F6D8FD758121020B2125
:100D6A0053313A002053323A0053333A0020563A6C
:010D7A000078
:0C0D8A00021C0000021E000002200000FD
:0E0D7B00E4FFFE0FBF00010EBE01F8BFF4F54D
:010D89002247
:100D2200E4FFFEE4FDFC0DBD00010CED64C84C7057
:0C0D3200F50FBF00010EBE01EABF2CE768
:010D3E002292
:080DAA00D292120D7BC29222CD
:0A0D3F00C291120D49EDC454F0FFFB
:0E0D4900EF54F0FFE590540F4FF590020DAA05
:0A0D9700AD07C290120D3F020D7B64
:100D04007C00AF03AE021208197C007D0A12081998
:040D1400ED2430FF9B
:0A0D1800AD07D290120D3F020D7BD3
:100C9F008B108A118912AB10AA11A91212080060C9
:100CAF00130512E5127002051114F9120800FF1254
:050CBF000D1880E22287
:100C1900AB07AA06C3EA64809480500C7F2D120D9D
:100C290018C3E49BFBE49AFA7D64120D047D0A1251
:100C39000D04AE02AF037C007D0A120819ED2430C1
:040C4900FF020D1881
:100CE500120D7B120D7B7F02120D977F28120D9737
:0F0CF5007F0C120D977F06120D977F01020D974E
:090DA100D2B0D2B1C2B0C2B1223D
:070DB200C2B0D2B1D2B022A1
:100C7700E4FEEEC39408748094805015EF30E704C7
:100C8700D2B08002C2B0D2B1C2B1EF25E0FF0E8070
:070C9700E1D2B0D2B1C2B1FD
:010C9E002233
:100CC400E4FFD2B0FEEEC39408748094805011D235
:100CD400B1EF25E0FF30B003430701C2B10E80E558
:010CE40022ED
:100D5700120DA1120C777F6B120C77E4FF120C7740
:030D6700020DB2C8
:020C4D00AD07F1
:100C4F00120DA1120C777F43120C77120DA1ED0438
:100C5F00FF120C77120CC4AD07120CC4AC07120DA7
:070C6F00B2EDFEAD04EDFF44
:010C7600225B
:10097200E4F513F512F511F510F517F516F515F561
:1009820014F51BF51AF519F518FBFA7FD0120C4D68
:10099200EE3395E0FDFCE5132FF513E5123EF5125B
:1009A200E5113DF511E5103CF5107FD2120C4DEE2C
:1009B2003395E0FDFCE5172FF517E5163EF516E534
:1009C200153DF515E5143CF5147FD0120C4DEE33B0
:1009D20095E0FDFCE51B2FF51BE51A3EF51AE5191E
:1009E2003DF519E5183CF518120D7B0BBB00010A09
:1009F200EB64144A7095E47B14FAF9F8AF13AE1263
:100A0200AD11AC10120BD58E1C8F1DE47B14FAF9BC
:100A1200F8AF17AE16AD15AC14120BD58E1E8F1F84
:100A2200E47B14FAF9F8AF1BAE1AAD19AC18120B2D
:050A3200D58E208F218C
:010A3700229C
:100B6600D3EF9DEC6480F8EE648098400CEF9BEA2E
:100B76006480F8EE6480984055C3EF9DEC6480F87D
:100B8600EE648098500DEF9DEC6480F8EE648098DA
:100B9600400122D3ED9FEE6480F8EC648098400C0F
:100BA600ED9BEA6480F8EC6480984019C3ED9FEEF3
:100BB6006480F8EC6480985011ED9FEE6480F8EC48
:0F0BC6006480984005AE04AF0522AE02AF032253
:100A3800120CE57FD0120D577FD2120D5712097292
:100A48007FD0120C4DC3EF951DF509EE951CF508E6
:100A58007FD2120C4DC3EF951FF50BEE951EF50ACC
:100A68007FD0120C4DC3EF9521F50DEE9520F50CB6
:100A7800AB0DFAAD0BAC0AAF09AE08120B668E0EC1
:100A88008F0F7F80120D977BFF7A0D796A120C9F6A
:100A9800AF09AE08120C197BFF7A0D796E120C9F04
:100AA800AF0BAE0A120C197FC0120D977BFF7A0D9F
:100AB8007973120C9FAF0DAE0C120C197BFF7A0DD7
:100AC8007977120C9FAF0FAE0E120C19120D22027D
:020AD8000A48CA
:100AE600020A38E493A3F8E493A34003F68001F2E4
:100AF60008DFF48029E493A3F85407240CC8C33311
:100B0600C4540F4420C8834004F456800146F6DFDF
:100B1600E4800B0102040810204080900D8AE47ED8
:100B2600019360BCA3FF543F30E509541FFEE493D4
:100B3600A360010ECF54C025E060A840B8E493A39B
:100B4600FAE493A3F8E493A3C8C582C8CAC583CAC6
:100B5600F0A3C8C582C8CAC583CADFE9DEE780BE7E
:010D9600005C
:10080000BB010689828A83E0225002E722BBFE02F6
:09081000E32289828A83E4932229
:10081900C2D5EC30E709B2D5E4C39DFDE49CFCEEFA
:1008290030E715B2D5E4C39FFFE49EFE12084FC31B
:10083900E49DFDE49CFC800312084F30D507C3E416
:060849009FFFE49EFE2269
:100BD500C2D5E830E70FB2D5E4C39BFBE49AFAE44B
:100BE50099F9E498F8EC30E717B2D5120C0B120816
:100BF500E0E4C39BFBE49AFAE499F9E498F88003EE
:100C05001208E030D50DE4C39FFFE49EFEE49DFD90
:040C1500E49CFC223D
:10084F00BC000BBE0029EF8DF084FFADF022E4CC8D
:10085F00F875F008EF2FFFEE33FEEC33FCEE9DEC56
:10086F00984005FCEE9DFE0FD5F0E9E4CEFD22ED9C
:10087F00F8F5F0EE8420D21CFEADF075F008EF2FE6
:10088F00FFED33FD4007985006D5F0F222C398FDD7
:05089F000FD5F0EA2274
:1008A40075F008758200EF2FFFEE33FECD33CDCC0B
:1008B40033CCC58233C5829BED9AEC99E58298408E
:1008C4000CF582EE9BFEED9AFDEC99FC0FD5F0D66B
:1008D400E4CEFBE4CDFAE4CCF9A88222B800C1B995
:1008E4000059BA002DEC8BF084CFCECDFCE5F0CBD3
:1008F400F97818EF2FFFEE33FEED33FDEC33FCEB0C
:1009040033FB10D703994004EB99FB0FD8E5E4F9C6
:10091400FA227818EF2FFFEE33FEED33FDEC33FCB3
:10092400C933C910D7059BE99A4007EC9BFCE99AA7
:10093400F90FD8E0E4C9FAE4CCFB2275F010EF2FEC
:10094400FFEE33FEED33FDCC33CCC833C810D707EC
:100954009BEC9AE899400AED9BFDEC9AFCE899F827
:0E0964000FD5F0DAE4CDFBE4CCFAE4C8F922BA
:00000001FF
